S00F0000315F436F6E73742E737265637E
S11300000C942A000C9434000C9434000C943400A6
S11300100C9434000C9434000C9434000C9434008C
S11300200C9434000C9434000C9434000C9434007C
S11300300C9434000C9434000C9434000C9434006C
S11300400C9434000C9434000C9434000C9434005C
S11300500C94340011241FBECFE5D4E0DEBFCDBF25
S11300600E9436000C9445000C9400008FEF81BB75
S113007090EF92BB17BA98BB8ABB94EB9BBB8BBB2C
S11100808DE98BBB80E090E00895F894FFCFEB
S9030000FC
