:020000040800F2
:10000000700600205D010008650100086701000816
:10001000690100086B0100086D0100080000000084
:100020000000000000000000000000006F01000858
:10003000710100080000000073010008A10400081D
:1000400077010008790100087B010008000000002A
:10005000000000007D0100087F0100088101000808
:1000600083010008000000008501000887010008E6
:100070008901000800000000410700088D01000808
:100080008F010008910100080000000093010008A2
:1000900095010008000000000000000000000000C2
:1000A00000000000000000000000000097010008B0
:1000B0005D0200089B0100089D0100089F010008E7
:1000C00000F002F800F03AF80AA090E8000C824430
:1000D0008344AAF10107DA4501D100F02FF8AFF20D
:1000E000090EBAE80F0013F0010F18BFFB1A43F016
:1000F00001031847F806000018070000103A24BF53
:1001000078C878C1FAD8520724BF30C830C144BF7C
:1001100004680C60704700000023002400250026BE
:10012000103A28BF78C1FBD8520728BF30C148BF5A
:100130000B6070471FB51FBD10B510BD00F045F82E
:100140001146FFF7F7FF00F019FB00F063F803B466
:10015000FFF7F2FF03BC00F06BF800001348804784
:1001600013480047FEE7FEE7FEE7FEE7FEE7FEE78F
:10017000FEE7FEE7FEE7FEE7FEE7FEE7FEE7FEE757
:10018000FEE7FEE7FEE7FEE7FEE7FEE7FEE7FEE747
:10019000FEE7FEE7FEE7FEE7FEE7FEE7FEE7FEE737
:1001A00004480549054A064B70470000B904000899
:1001B000C1000008700000207006002070020020BE
:1001C00070020020704770477047754600F02CF8A9
:1001D000AE4605006946534620F00700854618B034
:1001E00020B5FFF7DDFFBDE820404FF000064FF0DF
:1001F00000074FF000084FF0000BAC46ACE8C00918
:10020000ACE8C009ACE8C009ACE8C00921F00701BE
:100210008D46704710B50446AFF300802046BDE818
:100220001040FFF794BF000000487047080000200E
:1002300001491820ABBEFEE726000200704700000F
:100240001C20C4F20200016841F4001101607047F3
:100250004FF48040012100F0F9B8000010B548F2D9
:100260000000C4F20A000121012400F0B7F80028C0
:100270001EBF40F26800C2F20000046010BD000022
:100280002DE9F04F88B0D0F804B082680492C268BB
:100290000292026903924269059282690190069274
:1002A000C069079008880028009056D001220324D6
:1002B0004FF001184FF0000C4FF0000A4FF0000E05
:1002C0000AE000BF5200A4004FEA48080EF1010EF8
:1002D00040080CF1020C42D05FEAC079F2D08D7870
:1002E0002BEA020705FA0EF545EA070B0D7A049F83
:1002F00005FA0CF5A7433D4304958D7A029F05FA54
:100300000EF597433D43CE780295039D0B790EF190
:10031000100725EA0805BE40354303FA0EF32B43C8
:1003200003934B79059D8E7925EA0805BB402B4345
:1003300006FA0EF52B4305934B7A069D03FA0CF350
:10034000A5432B430693CB79079D03FA0EF3954300
:100350002B434AEA040A0793B4E74FF0000A00204F
:10036000019EC4F20C0000230021864208BF40F227
:10037000FF3308BF1F21029F009A27EA0108049F4C
:100380004FF0FF3427EA030E864208BF6FF01F14B8
:10039000039877680A43059D9743776020402C4077
:1003A000B768069D4AEA03099D4327EA0903B3603B
:1003B000F368079F2BEA010C27EA010123EA0202F6
:1003C000F2603061B5617461F161C6F80C80C6F805
:1003D00008E0C6F804C008B0BDE8F08F0068084027
:1003E00018BF0120704700000022C4F20C029042A6
:1003F000026808BF41F01F0122EA01010160704755
:10040000026811430022C4F20C02904208BF21F09E
:100410001F0101607047000080B584B0FFF710FF36
:100420004FF40070ADF80C0001208DF806008DF837
:100430000E000A20ADF8040048F20000C4F20A00E1
:1004400001A9FFF71DFF04B080BD0000002940F2A4
:100450001C01C4F202010A680CBF22EA000010432A
:10046000086070474EF21000CEF20000416843F67B
:100470007F6211434160016841F00201016001683F
:1004800041F001010160016801604FF08051C0F846
:10049000F0104EF62350CEF200002021017070477C
:1004A00040F26C00C2F200000168002908BF7047EA
:1004B00001680139016070472DE9F04381B040F2D5
:1004C00000004EF608510C25C0F60000CEF20001E7
:1004D000C4F2020508601020182128610020C0F62F
:1004E0000001286045F8080C45F8040C6860A86015
:1004F000E8606861A861E8612862296140F2AC7136
:10050000C0F600014FF0005251F8203042F8203080
:1005100001301028F8D148F2100845F25150C4F2C9
:100520000108C8F6AA2048F2380740F68079C8F8D2
:100530000000C4F20D07C0F6000901243E6809F16D
:100540002000C2F20004A04760F30A263E607868EB
:100550004FF6FF71CCF2E00100EA010609F110004C
:10056000A04760F31D664846A04700F01F0046EA1A
:1005700000407860002048F80C0CC8F800001020FB
:100580002861286828682968C00740F60010C0F272
:100590003D0004BF41F20020C0F27A00490705D5B2
:1005A00055F8081CC1F30321013148432968C1F300
:1005B000012151B102290DD001290ED12968C1F3C1
:1005C00003110131B0FBF1F009E041F20020C0F26B
:1005D0007A0004E04FF4004001E049F6404040F268
:1005E0000001C2F20001086001B0BDE8F083000024
:1005F00040F2240CC4F2020C0022DCF80030C4F2F9
:100600000802904212D048F20002C4F2070290425F
:1006100018D00022C4F20702904210D123F0FF004C
:10062000084440F08073CCF8003070474FF6FF70FC
:10063000CFF60030184040EA014000F18063CCF86A
:1006400000307047FF20CFF6FF50184040EA0120ED
:1006500000F10073CCF8003070470000C9434165D9
:1006600070470000C268002922F0010218BF013261
:10067000C26070470A8802604A8842608A88826045
:10068000B1F806C00B894A8943EA0C0343EA020C1D
:100690008B89CA8943EA0C031A43C2600A8A4B8ACF
:1006A00043EA02128B8AC98A1A43114301657047D3
:1006B000826D406D1140084018BF01207047000056
:1006C000D0F858C0002A4CEA010308BF2CEA010305
:1006D00083657047B0B586B0FFF7BAFD41F63F704D
:1006E000C0F220300024CDF802004FF48070C4F234
:1006F00007040025ADF80A0069462046CDF80650EB
:10070000CDE903550595FFF7B5FF20460021FFF71A
:100710006FFF4EF20010CEF200004FF480410160F6
:100720004EF20E40CEF2000005702046012101225B
:10073000FFF7C6FF20460121FFF794FF06B0B0BDCA
:1007400010B50024C4F2070420460121FFF7B0FFD2
:1007500020B104F560300221FFF752FE204601214E
:10076000BDE81040FFF77ABF40F26C01C2F2000111
:10077000086000BF08680028FCD17047FFF772FED0
:10078000FFF74AFEFFF7A6FF48F20004C4F20A048E
:100790004FF4FA70FFF7E8FF20460221FFF724FE2E
:1007A0004FF4FA70FFF7E0FFF2E7000010B50246E1
:1007B0000D4B1B6838242340D91DFF31FB310A4BF8
:1007C00019605A60E3000B43074C23602346DB6843
:1007D0002346DB682346DB682346D8683823194064
:1007E0002346196010BD0000008001401008000879
:1007F0000000002008000000FC00000818080008A5
:100800000800002068060000180100080000000031
:0808100000127A000000000054
:04000005080000C12E
:00000001FF
