:020000040800F2
:10000000780600205D01000865010008670100080E
:10001000690100086B0100086D0100080000000084
:100020000000000000000000000000006F01000858
:100030007101000800000000730100089505000828
:1000400077010008790100087B010008000000002A
:10005000000000007D0100087F0100088101000808
:1000600083010008000000008501000887010008E6
:100070008901000800000000810900088D010008C6
:100080008F010008910100080000000093010008A2
:1000900095010008000000000000000000000000C2
:1000A00000000000000000000000000097010008B0
:1000B000B10200089B0100089D0100089F01000893
:1000C00000F002F800F03AF80AA090E8000C824430
:1000D0008344AAF10107DA4501D100F02FF8AFF20D
:1000E000090EBAE80F0013F0010F18BFFB1A43F016
:1000F000010318477409000094090000103A24BF56
:1001000078C878C1FAD8520724BF30C830C144BF7C
:1001100004680C60704700000023002400250026BE
:10012000103A28BF78C1FBD8520728BF30C148BF5A
:100130000B6070471FB51FBD10B510BD00F045F82E
:100140001146FFF7F7FF00F051FC00F063F803B42D
:10015000FFF7F2FF03BC00F06BF800001348804784
:1001600013480047FEE7FEE7FEE7FEE7FEE7FEE78F
:10017000FEE7FEE7FEE7FEE7FEE7FEE7FEE7FEE757
:10018000FEE7FEE7FEE7FEE7FEE7FEE7FEE7FEE747
:10019000FEE7FEE7FEE7FEE7FEE7FEE7FEE7FEE737
:1001A00004480549054A064B704700001D06000833
:1001B000C1000008780000207806002078020020A6
:1001C00078020020704770477047754600F02CF8A1
:1001D000AE4605006946534620F00700854618B034
:1001E00020B5FFF7DDFFBDE820404FF000064FF0DF
:1001F00000074FF000084FF0000BAC46ACE8C00918
:10020000ACE8C009ACE8C009ACE8C00921F00701BE
:100210008D46704710B50446AFF300802046BDE818
:100220001040FFF794BF000000487047080000200E
:1002300001491820ABBEFEE726000200704700000F
:100240004FF48040012100F077B900000020C4F293
:100250000200002141608160C160016141618161F2
:10026000016241628162C162C16941F01F01C161E5
:10027000012181600168490708D440F6041100BFDC
:1002800042680A43426002685207F9D5016889074B
:10029000FCD5C16840F207121143C16048F23C002E
:1002A000C4F20D00016821F48101016000F07EB903
:1002B00010B548F20000C4F20A000121012400F048
:1002C000F3F800281EBF40F26800C2F2000004608C
:1002D00010BD000080B584B01C20C4F2020001688B
:1002E00041F4001101604FF40070ADF80C000120E2
:1002F0008DF806008DF80E000220ADF8040048F2DB
:100300000000C4F20A0001A900F020F804B080BD8A
:1003100080B584B01C20C4F20200016841F40011D1
:10032000016040F20230ADF80C0001208DF80600AB
:100330008DF80E000820ADF8040048F20000C4F269
:100340000A0001A900F002F804B080BD2DE9F04FC9
:1003500088B0D0F804B082680492C2680292026940
:10036000039242690592826901900692C0690790E2
:1003700008880028009056D0012203244FF001186D
:100380004FF0000C4FF0000A4FF0000E0AE000BFE3
:100390005200A4004FEA48080EF1010E40080CF18B
:1003A000020C42D05FEAC079F2D08D782BEA0207C6
:1003B00005FA0EF545EA070B0D7A049F05FA0CF5D0
:1003C000A7433D4304958D7A029F05FA0EF59743A6
:1003D0003D43CE780295039D0B790EF1100725EA77
:1003E0000805BE40354303FA0EF32B4303934B79C4
:1003F000059D8E7925EA0805BB402B4306FA0EF5CC
:100400002B4305934B7A069D03FA0CF3A5432B432C
:100410000693CB79079D03FA0EF395432B434AEAE3
:10042000040A0793B4E74FF0000A0020019EC4F2CB
:100430000C0000230021864208BF40F2FF3308BFB2
:100440001F21029F009A27EA0108049F4FF0FF3402
:1004500027EA030E864208BF6FF01F1403987768DF
:100460000A43059D9743776020402C40B768069D5E
:100470004AEA03099D4327EA0903B360F368079F2B
:100480002BEA010C27EA010123EA0202F260306143
:10049000B5617461F161C6F80C80C6F808E0C6F871
:1004A00004C008B0BDE8F08F0068084018BF012004
:1004B000704700000022C4F20C029042026808BF9C
:1004C00041F01F0122EA01010160704702681143F7
:1004D0000022C4F20C02904208BF21F01F0101600B
:1004E0007047000080B5FFF7B1FEFFF7F3FEFFF79E
:1004F0000FFF00F005F8BDE8804000F02BB90000C8
:1005000010B584B04FF400000121012400F014F86C
:100510004FF40070ADF80C000420ADF8040048F270
:100520000000C4F20B0001A98DF806408DF80E40C2
:10053000FFF70CFF04B010BD002940F21C01C4F20B
:1005400002010A680CBF22EA0000104308607047ED
:100550004EF21000CEF20000002101604160816087
:1005600040F20001C2F20001096844F6D352C1F220
:100570006202A1FB02124FF0FF3101EB92114160C8
:10058000072101604EF62350CEF20000E0210170F9
:100590007047000040F26C00C2F2000001680029C0
:1005A00008BF704701680139016070470C20C4F230
:1005B0000200016801680268C90740F60011C0F234
:1005C0003D0104BF41F20021C0F27A01520705D576
:1005D00050F8082CC2F30322013251430268C2F3DF
:1005E000012252B1022A0DD0012A0ED10068C0F3B7
:1005F00003100130B1FBF0F009E041F20020C0F23D
:100600007A0004E04FF4004001E049F6404040F237
:100610000001C2F200010860704700002DE9F043BC
:1006200081B040F200004EF608510C25C0F60000E3
:10063000CEF20001C4F202050860102018212861E2
:100640000020C0F60001286045F8080C45F8040CAD
:100650006860A860E8606861A861E8612862296153
:1006600040F62821C0F600014FF0005251F820302A
:1006700042F8203001301028F8D148F2100845F235
:100680005150C4F20108C8F6AA2048F2380740F6D3
:100690008079C8F80000C4F20D07C0F600090124F3
:1006A0003E6809F12000C2F20004A04760F30A2668
:1006B0003E6078684FF6FF71CCF2E00100EA010677
:1006C00009F11000A04760F31D664846A04700F0FE
:1006D0001F0046EA00407860002048F80C0CC8F87B
:1006E000000010202861286828682968C00740F6A3
:1006F0000010C0F23D0004BF41F20020C0F27A00B9
:10070000490705D555F8081CC1F3032101314843B9
:100710002968C1F3012151B102290DD001290ED15F
:100720002968C1F303110131B0FBF1F009E041F296
:100730000020C0F27A0004E04FF4004001E049F6E6
:10074000404040F20001C2F20001086001B0BDE883
:10075000F0830000B0B592B0FFF772FD0024C4F240
:100760000704204600F0E6F84FF07A70CDF832002A
:100770000020CDF83600CDF83E00CDF84200ADF8AF
:1007800046004FF48070CDF83A000CA9204600F0E6
:10079000ABF84FF44060ADF81E00012505A92046D6
:1007A000059500F049F80220C0F20100CDE90050A3
:1007B0006946204600F06EF82046002100F006F859
:1007C0002046012100F088F812B0B0BD40F2240CA0
:1007D000C4F2020C0022DCF80030C4F2080290429D
:1007E00012D048F20002C4F20702904218D0002250
:1007F000C4F20702904210D123F0FF00084440F0F9
:100800008073CCF8003070474FF6FF70CFF60030A1
:10081000184040EA014000F18063CCF80030704796
:10082000FF20CFF6FF50184040EA012000F100738E
:10083000CCF80030704700004A88CB8843EA020CAD
:100840000B894A8943EA0C0343EA020C8B89CA8963
:100850004CEA831343EA020C8A880B8A002A0A882E
:1008600043EA0C0300EB820018BF43F48073036279
:10087000B1F812C0CB8A8A8A43EA0C03098B002A9A
:1008800018BF43F00403002918BF43F010030366A8
:10089000704700008A88B1F802C09200CB8842EA13
:1008A0000C1242EA030C0B894A894CEA033343EAEF
:1008B000822C8B890A884CEA032300EB82000363B5
:1008C000CA890B8A498A43EA0222114301647047AC
:1008D000C943416570470000C268002922F0010247
:1008E00018BF0132C26070470A8802604A884260BD
:1008F0008A888260B1F806C00B894A8943EA0C03F2
:1009000043EA020C8B89CA8943EA0C031A43C2608A
:100910000A8A4B8A43EA02128B8AC98A1A43114314
:1009200001657047826D406D1140084018BF01207D
:10093000704700000021016041608160C160016179
:1009400041618161C161016741678167C16701627E
:1009500041628162C162016341638163C163016677
:1009600041668166C166016441648164C164016558
:1009700041658165C165704700EB81000261704788
:10098000B0B548F20005C4F20A05A5F5603420466A
:100990000221FFF7C7FFC0B128460221FFF784FDFF
:1009A000012809D128460221FFF784FD05F5803092
:1009B0000421FFF78BFD08E028460221FFF786FDA2
:1009C00005F580300421FFF775FD20460221BDE8C2
:1009D000B040FFF77DBF000040F26C01C2F20001A1
:1009E000086000BF08680028FCD17047FFF7B0FD21
:1009F000FFF778FD40F270050024C2F20005C4F252
:100A0000070400264FF4FA70FFF7E6FF2868411C40
:100A1000296082B220460121FFF7AEFF2868B0F5B9
:100A2000FA7FEFD12E60EDE710B502460D4B1B6843
:100A300038242340D91DFF31FB310A4B19605A601D
:100A4000E3000B43074C23602346DB682346DB6847
:100A50002346DB682346D8683823194023461960AB
:100A600010BD000000800140880A0008000000203E
:100A700008000000FC000008900A000808000020A0
:100A8000700600001801000800127A000000000043
:04000005080000C12E
:00000001FF
