:020000040800F2
:10000000700600205D010008650100086701000816
:10001000690100086B0100086D0100080000000084
:100020000000000000000000000000006F01000858
:100030007101000800000000730100084D05000870
:1000400077010008790100087B010008000000002A
:10005000000000007D0100087F0100088101000808
:1000600083010008000000008501000887010008E6
:1000700089010008000000001D0800088D0100082B
:100080008F010008910100080000000093010008A2
:1000900095010008000000000000000000000000C2
:1000A00000000000000000000000000097010008B0
:1000B000B10200089B0100089D0100089F01000893
:1000C00000F002F800F03AF80AA090E8000C824430
:1000D0008344AAF10107DA4501D100F02FF8AFF20D
:1000E000090EBAE80F0013F0010F18BFFB1A43F016
:1000F00001031847CC070000EC070000103A24BFAA
:1001000078C878C1FAD8520724BF30C830C144BF7C
:1001100004680C60704700000023002400250026BE
:10012000103A28BF78C1FBD8520728BF30C148BF5A
:100130000B6070471FB51FBD10B510BD00F045F82E
:100140001146FFF7F7FF00F095FB00F063F803B4EA
:10015000FFF7F2FF03BC00F06BF800001348804784
:1001600013480047FEE7FEE7FEE7FEE7FEE7FEE78F
:10017000FEE7FEE7FEE7FEE7FEE7FEE7FEE7FEE757
:10018000FEE7FEE7FEE7FEE7FEE7FEE7FEE7FEE747
:10019000FEE7FEE7FEE7FEE7FEE7FEE7FEE7FEE737
:1001A00004480549054A064B70470000D50500087C
:1001B000C1000008700000207006002070020020BE
:1001C00070020020704770477047754600F02CF8A9
:1001D000AE4605006946534620F00700854618B034
:1001E00020B5FFF7DDFFBDE820404FF000064FF0DF
:1001F00000074FF000084FF0000BAC46ACE8C00918
:10020000ACE8C009ACE8C009ACE8C00921F00701BE
:100210008D46704710B50446AFF300802046BDE818
:100220001040FFF794BF000000487047080000200E
:1002300001491820ABBEFEE726000200704700000F
:100240004FF48040012100F057B900000020C4F2B3
:100250000200002141608160C160016141618161F2
:10026000016241628162C162C16941F01F01C161E5
:10027000012181600168490708D440F6041100BFDC
:1002800042680A43426002685207F9D5016889074B
:10029000FCD5C16840F207121143C16048F23C002E
:1002A000C4F20D00016821F48101016000F05AB927
:1002B00010B548F20000C4F20A000121012400F048
:1002C000D5F800281EBF40F26800C2F200000460AA
:1002D00010BD000080B584B01C20C4F2020001688B
:1002E00041F4001101604FF40070ADF80C000120E2
:1002F0008DF806008DF80E000A20ADF8040048F2D3
:100300000000C4F20A0001A900F002F804B080BDA8
:100310002DE9F04F88B0D0F804B082680492C2682A
:1003200002920269039242690592826901900692E3
:10033000C069079008880028009056D00122032445
:100340004FF001184FF0000C4FF0000A4FF0000E74
:100350000AE000BF5200A4004FEA48080EF1010E67
:1003600040080CF1020C42D05FEAC079F2D08D78DF
:100370002BEA020705FA0EF545EA070B0D7A049FF2
:1003800005FA0CF5A7433D4304958D7A029F05FAC3
:100390000EF597433D43CE780295039D0B790EF100
:1003A000100725EA0805BE40354303FA0EF32B4338
:1003B00003934B79059D8E7925EA0805BB402B43B5
:1003C00006FA0EF52B4305934B7A069D03FA0CF3C0
:1003D000A5432B430693CB79079D03FA0EF3954370
:1003E0002B434AEA040A0793B4E74FF0000A0020BF
:1003F000019EC4F20C0000230021864208BF40F297
:10040000FF3308BF1F21029F009A27EA0108049FBB
:100410004FF0FF3427EA030E864208BF6FF01F1427
:10042000039877680A43059D9743776020402C40E6
:10043000B768069D4AEA03099D4327EA0903B360AA
:10044000F368079F2BEA010C27EA010123EA020265
:10045000F2603061B5617461F161C6F80C80C6F874
:1004600008E0C6F804C008B0BDE8F08F0068084096
:1004700018BF0120704700000022C4F20C02904215
:10048000026808BF41F01F0122EA010101607047C4
:10049000026811430022C4F20C02904208BF21F00E
:1004A0001F0101607047000080B5FFF7CFFEFFF726
:1004B00011FF00F005F8BDE8804000F069B90000C8
:1004C00010B584B04FF400000121012400F014F8AD
:1004D0004FF40070ADF80C000420ADF8040048F2B1
:1004E0000000C4F20B0001A98DF806408DF80E4003
:1004F000FFF70EFF04B010BD002940F21C01C4F24A
:1005000002010A680CBF22EA00001043086070472D
:100510004EF21000CEF20000416843F67F621143B4
:100520004160016841F002010160016841F0010190
:100530000160016801604FF08051C0F8F0104EF684
:100540002350CEF2000020210170704740F26C0071
:10055000C2F200000168002908BF70470168013934
:10056000016070470C20C4F2020001680168026853
:10057000C90740F60011C0F23D0104BF41F200215D
:10058000C0F27A01520705D550F8082CC2F30322B5
:10059000013251430268C2F3012252B1022A0DD046
:1005A000012A0ED10068C0F303100130B1FBF0F056
:1005B00009E041F20020C0F27A0004E04FF400406C
:1005C00001E049F6404040F20001C2F2000108603B
:1005D000704700002DE9F04381B040F200004EF674
:1005E00008510C25C0F60000CEF20001C4F202054D
:1005F00008601020182128610020C0F60001286042
:1006000045F8080C45F8040C6860A860E86068616B
:10061000A861E8612862296140F68001C0F6000106
:100620004FF0005251F8203042F8203001301028AD
:10063000F8D148F2100845F25150C4F20108C8F64A
:10064000AA2048F2380740F68079C8F80000C4F2C2
:100650000D07C0F6000901243E6809F12000C2F22E
:100660000004A04760F30A263E6078684FF6FF71E9
:10067000CCF2E00100EA010609F11000A04760F3A6
:100680001D664846A04700F01F0046EA004078601B
:10069000002048F80C0CC8F80000102028612868D9
:1006A00028682968C00740F60010C0F23D0004BF6A
:1006B00041F20020C0F27A00490705D555F8081C20
:1006C000C1F30321013148432968C1F3012151B12C
:1006D00002290DD001290ED12968C1F3031101317E
:1006E000B0FBF1F009E041F20020C0F27A0004E032
:1006F0004FF4004001E049F6404040F20001C2F2F0
:100700000001086001B0BDE8F083000040F2240C55
:10071000C4F2020C0022DCF80030C4F2080290425D
:1007200012D048F20002C4F20702904218D0002210
:10073000C4F20702904210D123F0FF00084440F0B9
:100740008073CCF8003070474FF6FF70CFF6003062
:10075000184040EA014000F18063CCF80030704757
:10076000FF20CFF6FF50184040EA012000F100734F
:10077000CCF8003070470000C94341657047000065
:10078000826D406D1140084018BF01207047000085
:1007900010B5FFF755FD0020C4F20700002440F219
:1007A0001F31046044608460C460046144618461FA
:1007B000C461046744678467C467046244628462F6
:1007C000C462046344638463C463046644668466E9
:1007D000C466046444648464C464046544658465D4
:1007E000C46541604FF4FA5104608160C16841F012
:1007F0000101C160816D41F0020181650021FFF7B7
:1008000085FF4EF20E40CEF2000004704EF2001052
:10081000CEF200004FF48041016010BDB0B548F247
:100820000005C4F20A05A5F5603420460221FFF751
:10083000A7FFC0B128460221FFF718FE012809D101
:1008400028460221FFF718FE05F580300421FFF746
:100850001FFE08E028460221FFF71AFE05F580304A
:100860000421FFF709FE20460221BDE8B040FFF752
:1008700083BF0000FFF74CFEFFF716FEFEE7000007
:1008800010B502460D4B1B6838242340D91DFF319B
:10089000FB310A4B19605A60E3000B43074C23609D
:1008A0002346DB682346DB682346DB682346D8689B
:1008B000382319402346196010BD00000080014014
:1008C000E00800080000002008000000FC0000080C
:1008D000E808000808000020680600001801000869
:0808E00000127A000000000084
:04000005080000C12E
:00000001FF
