:020000040800F2
:10000000700600205D010008650100086701000816
:10001000690100086B0100086D0100080000000084
:100020000000000000000000000000006F01000858
:10003000710100080000000073010008BD060008FF
:1000400077010008790100087B010008000000002A
:10005000000000007D0100087F0100088101000808
:1000600083010008000000008501000887010008E6
:1000700089010008000000008B0100088D010008C4
:100080008F010008910100080000000093010008A2
:1000900095010008000000000000000000000000C2
:1000A00000000000000000000000000097010008B0
:1000B000CD0200089B0100089D0100089F01000877
:1000C00000F002F800F03AF80AA090E8000C824430
:1000D0008344AAF10107DA4501D100F02FF8AFF20D
:1000E000090EBAE80F0013F0010F18BFFB1A43F016
:1000F000010318473809000058090000103A24BFCE
:1001000078C878C1FAD8520724BF30C830C144BF7C
:1001100004680C60704700000023002400250026BE
:10012000103A28BF78C1FBD8520728BF30C148BF5A
:100130000B6070471FB51FBD10B510BD00F045F82E
:100140001146FFF7F7FF00F0EDFB00F063F803B492
:10015000FFF7F2FF03BC00F06BF800001348804784
:1001600013480047FEE7FEE7FEE7FEE7FEE7FEE78F
:10017000FEE7FEE7FEE7FEE7FEE7FEE7FEE7FEE757
:10018000FEE7FEE7FEE7FEE7FEE7FEE7FEE7FEE747
:10019000FEE7FEE7FEE7FEE7FEE7FEE7FEE7FEE737
:1001A00004480549054A064B70470000CD07000882
:1001B000C1000008700000207006002070020020BE
:1001C00070020020704770477047754600F02CF8A9
:1001D000AE4605006946534620F00700854618B034
:1001E00020B5FFF7DDFFBDE820404FF000064FF0DF
:1001F00000074FF000084FF0000BAC46ACE8C00918
:10020000ACE8C009ACE8C009ACE8C00921F00701BE
:100210008D46704710B50446AFF300802046BDE818
:100220001040FFF794BF000000487047080000200E
:1002300001491820ABBEFEE726000200704700000F
:100240001C21C4F20201086840F4001008607047E5
:1002500080B54FF40000012100F0FAF980BD0000E4
:1002600080B500F0B1FB0821C4F202010120086052
:10027000FFE70020C4F2020000684007002809D40C
:10028000FFE70421C4F20201086840F6041210439B
:100290000860EEE7FFE70020C4F202000068800774
:1002A000002801D4FFE7F6E70C21C4F20201086838
:1002B00040F207121043086048F23C01C4F20D01FD
:1002C000086820F48100086080BD000080B548F215
:1002D0000000C4F20A00012100F056F938B1FFE72E
:1002E00040F26801C2F2000101200860FFE780BD12
:1002F00080B584B0FFF7A4FF022100918DF80C10A7
:1003000001208DF806008DF80E00ADF804008DF880
:100310000D108DF809008DF80B0048F20000C4F2B2
:100320000A0001A900F022F800991C2000F0C4FA8C
:1003300004B080BD80B584B0FFF782FF00208DF847
:100340000C0001208DF806008DF80E000A20ADF893
:10035000040002208DF80D0048F20000C4F20A00EB
:1003600001A900F003F804B080BD00008FB00E902A
:100370000D910E9840680C900E9880680B900E9826
:10038000C0680A900E98006909900E98406908901C
:100390000E98806907900E98C0690690002004901E
:1003A00001210391032102914FF00111019100906D
:1003B0000D9800880590FFE70598002869D0FFE7B1
:1003C0009DF81400C007002852D0FFE70C9803994D
:1003D00088430D998978049A914008430C900B98B2
:1003E000029988430D99097A049A52009140084372
:1003F0000B900A98039988430D99897A049A914041
:1004000008430A900998019988430D99049A02F1CA
:10041000100CCB78097903FA0CF318439140084388
:1004200009900898019988430D99049A02F1100CDB
:100430004B79897903FA0CF31843914008430890EB
:100440000798029988430D99497A049A520091407D
:10045000084307900698039988430D99C979049A2F
:100460009140084306900299009808430090FFE7E6
:100470000398400003900298800002900198400089
:100480000190049801300490FFE70598400805901A
:1004900092E70D98008805900E9A059840F01F018C
:1004A0000023C4F20C039A4208BF08460590DDF809
:1004B00038C0009840F2FF3140EA01029C4508BF75
:1004C00010460090DDF838C00C9820F01F029C45C3
:1004D00008BF10460C90DDF838C00A9820F01F02C3
:1004E0009C4508BF10460A900E9A0B9820EA01011D
:1004F0009A4208BF08460B900E9A099820F01F11E7
:100500009A4208BF084609900E9A089820F01F11D9
:100510009A4208BF084608900E9A079801466FF362
:1005200009019A4208BF084607900E9A069820F0E3
:100530001F019A4208BF08460690059A0E9948681E
:1005400090434860009A0E99886890438860059AA5
:100550000E99C8689043C86009980E990861079879
:100560000E99886108980E99486106980E99C8619D
:100570000A980E99C8600B980E9988600C980E998D
:1005800048600FB07047000082B00190ADF80210D3
:1005900001980068BDF80210084204D0FFE701206E
:1005A0008DF8010003E000208DF80100FFE79DF8C1
:1005B000010002B07047000082B001900091009AE3
:1005C000019942F01F000023C4F20C03994208BFB6
:1005D000024608689043086002B0704782B00190FC
:1005E00000910098019909680843019920F01F02C1
:1005F0000023C4F20C03994208BF1046086002B001
:100600007047000080B5FFF72BFEFFF793FE00F068
:1006100003F8FFF76DFE80BD80B584B0FFF718FECC
:1006200000208DF80C0001208DF806008DF80E00DA
:100630000420ADF8040002208DF80D0048F20000FF
:10064000C4F20B0001A9FFF791FE04B080BD0000C9
:1006500082B001908DF803109DF8030040B1FFE7D0
:10066000019A1C21C4F2020108681043086007E0E7
:10067000019A1C21C4F20201086890430860FFE758
:1006800002B0704780B54EF21401CEF20001086846
:1006900043F67F62104308604EF21001CEF2000173
:1006A00008684FF0FF3008600A6842F010020A60E4
:1006B0000A680860012100F0DDF880BD40F26C009E
:1006C000C2F20000006840B1FFE740F26C01C2F2E4
:1006D0000001086801380860FFE7704785B00C200A
:1006E000C4F2020000688007002806D5FFE741F247
:1006F0000020C0F27A00049005E041F20020C0F230
:100700007A000490FFE70C20C4F202000068C007E2
:1007100020B1FFE7049840080490FFE70498039095
:100720000C20C4F202000068400700280DD5FFE746
:100730000420C4F202000068C0F3032001300190DD
:100740000199039848430390FFE70C20C4F202008C
:100750000068C0F301200146009140B1FFE7009816
:1007600001280ED0FFE7009802281CD023E040F2B9
:100770000001C2F2000141F20020C0F27A000860DC
:1007800021E003980C21C4F202010968C1F30311AE
:100790000131B0FBF1F00290029840F20001C2F288
:1007A000000108600FE040F20001C2F200014FF4C6
:1007B0000040086007E040F20001C2F2000149F683
:1007C00040400860FFE705B07047000080B540F288
:1007D0000000C0F600004EF60851CEF2000108609D
:1007E0001C21C4F20201102008600C21C4F2020195
:1007F000002008600421C4F2020108600821C4F24C
:10080000020108601021C4F2020108601421C4F240
:10081000020108601821C4F2020108602021C4F21C
:10082000020108602421C4F2020108602821C4F2F8
:10083000020108602C21C4F202010860FFF74EFF9C
:1008400080BD000081B08DF803009DF903000028F1
:100850000ED4FFE79DF9031001F01F020120904024
:100860004A094EF20011CEF2000141F82200FFE7E2
:1008700001B0704782B08DF8070000919DF9070024
:1008800000280AD4FFE7009840019DF907104EF2B6
:100890000042CEF2000288540BE0009840019DF81F
:1008A000071001F00F014EF61452CEF200028854E8
:1008B000FFE702B07047000082B08DF8070000919A
:1008C0009DF9070000280AD4FFE7009840019DF930
:1008D00007104EF20042CEF2000288540BE000985E
:1008E00040019DF8071001F00F014EF61452CEF2B0
:1008F00000028854FFE702B07047000081B000900A
:10090000009840F26C01C2F200010860FFE740F27B
:100910006C00C2F20000006808B1FFE7F7E701B021
:100920007047000080B586B000200590FFF7AAFE52
:10093000FFF768FE1C20FFF785FFFFE740F2680025
:10094000C2F20000006870B1FFE748F20000C4F294
:100950000A000821FFF742FE40F26801C2F20001DE
:100960000020086007E048F20000C4F20A000821F5
:10097000FFF722FEFFE748F20000C4F20A000090F1
:1009800002210191FFF72AFE4FF4FA700490FFF75D
:10099000B5FF00980199FFF70FFE0498FFF7AEFF2F
:1009A00048F20000C4F20B00029004210391FFF70B
:1009B00015FE0498FFF7A2FF02980399FFF7FCFDCC
:1009C0000498FFF79BFFB9E70421C4F2020100205D
:1009D00008600821C4F2020108600C21C4F202017F
:1009E00008601021C4F2020108601421C4F202015F
:1009F00008601821C4F2020108602021C4F202013B
:100A000008602421C4F2020108602821C4F2020116
:100A100008602C21C4F2020108601C21C4F202010A
:100A2000086840F01F00086070470000500A000886
:100A30000000002008000000FC000008580A000820
:100A400008000020680600001801000800000000EF
:080A500000127A000000000012
:04000005080000C12E
:00000001FF
